{
  "_format": "hh-sol-artifact-1",
  "contractName": "FraudRegistry",
  "sourceName": "contracts/FraudRegistry.sol",
  "abi": [
    {
      "inputs": [],
      "stateMutability": "nonpayable",
      "type": "constructor"
    },
    {
      "anonymous": false,
      "inputs": [
        {
          "indexed": true,
          "internalType": "bytes32",
          "name": "entityHash",
          "type": "bytes32"
        },
        {
          "indexed": false,
          "internalType": "uint8",
          "name": "entityType",
          "type": "uint8"
        },
        {
          "indexed": true,
          "internalType": "address",
          "name": "reportingBank",
          "type": "address"
        },
        {
          "indexed": false,
          "internalType": "uint256",
          "name": "timestamp",
          "type": "uint256"
        }
      ],
      "name": "FraudReported",
      "type": "event"
    },
    {
      "inputs": [
        {
          "internalType": "address",
          "name": "bank",
          "type": "address"
        }
      ],
      "name": "addBank",
      "outputs": [],
      "stateMutability": "nonpayable",
      "type": "function"
    },
    {
      "inputs": [
        {
          "internalType": "address",
          "name": "",
          "type": "address"
        }
      ],
      "name": "authorizedBanks",
      "outputs": [
        {
          "internalType": "bool",
          "name": "",
          "type": "bool"
        }
      ],
      "stateMutability": "view",
      "type": "function"
    },
    {
      "inputs": [
        {
          "internalType": "bytes32",
          "name": "entityHash",
          "type": "bytes32"
        }
      ],
      "name": "checkSignal",
      "outputs": [
        {
          "internalType": "bool",
          "name": "isFraud",
          "type": "bool"
        },
        {
          "internalType": "uint256",
          "name": "reportedAt",
          "type": "uint256"
        },
        {
          "internalType": "address",
          "name": "reportingBank",
          "type": "address"
        }
      ],
      "stateMutability": "view",
      "type": "function"
    },
    {
      "inputs": [],
      "name": "getTotalSignals",
      "outputs": [
        {
          "internalType": "uint256",
          "name": "",
          "type": "uint256"
        }
      ],
      "stateMutability": "view",
      "type": "function"
    },
    {
      "inputs": [],
      "name": "owner",
      "outputs": [
        {
          "internalType": "address",
          "name": "",
          "type": "address"
        }
      ],
      "stateMutability": "view",
      "type": "function"
    },
    {
      "inputs": [
        {
          "internalType": "bytes32",
          "name": "entityHash",
          "type": "bytes32"
        },
        {
          "internalType": "uint8",
          "name": "entityType",
          "type": "uint8"
        }
      ],
      "name": "reportFraud",
      "outputs": [],
      "stateMutability": "nonpayable",
      "type": "function"
    }
  ],
  "bytecode": "0x608060405234801561001057600080fd5b5033600260006101000a81548173ffffffffffffffffffffffffffffffffffffffff021916908373ffffffffffffffffffffffffffffffffffffffff1602179055506109e5806100616000396000f3fe608060405234801561001057600080fd5b50600436106100615760003560e01c806280d170146100665780637ab19138146100825780638da5cb5b146100b457806394722397146100d2578063a2969820146100ee578063d2fa2fb11461011e575b600080fd5b610080600480360381019061007b91906105e8565b61013c565b005b61009c60048036038101906100979190610628565b610360565b6040516100ab939291906106ca565b60405180910390f35b6100bc61043a565b6040516100c99190610701565b60405180910390f35b6100ec60048036038101906100e79190610748565b610460565b005b61010860048036038101906101039190610748565b61054a565b6040516101159190610775565b60405180910390f35b61012661056a565b6040516101339190610790565b60405180910390f35b600160003373ffffffffffffffffffffffffffffffffffffffff1673ffffffffffffffffffffffffffffffffffffffff16815260200190815260200160002060009054906101000a900460ff166101c8576040517f08c379a00000000000000000000000000000000000000000000000000000000081526004016101bf90610808565b60405180910390fd5b60028160ff16111561020f576040517f08c379a000000000000000000000000000000000000000000000000000000000815260040161020690610874565b60405180910390fd5b60405180608001604052806001151581526020018260ff1681526020014281526020013373ffffffffffffffffffffffffffffffffffffffff1681525060008084815260200190815260200160002060008201518160000160006101000a81548160ff02191690831515021790555060208201518160000160016101000a81548160ff021916908360ff1602179055506040820151816001015560608201518160020160006101000a81548173ffffffffffffffffffffffffffffffffffffffff021916908373ffffffffffffffffffffffffffffffffffffffff16021790555090505060036000815480929190610306906108c3565b91905055503373ffffffffffffffffffffffffffffffffffffffff16827fd2b9ff6fe4ca325022a0df1a2b4fd53e0436ad2c6d90e925170932308b56c0c1834260405161035492919061091a565b60405180910390a35050565b6000806000806000808681526020019081526020016000206040518060800160405290816000820160009054906101000a900460ff161515151581526020016000820160019054906101000a900460ff1660ff1660ff168152602001600182015481526020016002820160009054906101000a900473ffffffffffffffffffffffffffffffffffffffff1673ffffffffffffffffffffffffffffffffffffffff1673ffffffffffffffffffffffffffffffffffffffff16815250509050806000015181604001518260600151935093509350509193909250565b600260009054906101000a900473ffffffffffffffffffffffffffffffffffffffff1681565b600260009054906101000a900473ffffffffffffffffffffffffffffffffffffffff1673ffffffffffffffffffffffffffffffffffffffff163373ffffffffffffffffffffffffffffffffffffffff16146104f0576040517f08c379a00000000000000000000000000000000000000000000000000000000081526004016104e79061098f565b60405180910390fd5b60018060008373ffffffffffffffffffffffffffffffffffffffff1673ffffffffffffffffffffffffffffffffffffffff16815260200190815260200160002060006101000a81548160ff02191690831515021790555050565b60016020528060005260406000206000915054906101000a900460ff1681565b6000600354905090565b600080fd5b6000819050919050565b61058c81610579565b811461059757600080fd5b50565b6000813590506105a981610583565b92915050565b600060ff82169050919050565b6105c5816105af565b81146105d057600080fd5b50565b6000813590506105e2816105bc565b92915050565b600080604083850312156105ff576105fe610574565b5b600061060d8582860161059a565b925050602061061e858286016105d3565b9150509250929050565b60006020828403121561063e5761063d610574565b5b600061064c8482850161059a565b91505092915050565b60008115159050919050565b61066a81610655565b82525050565b6000819050919050565b61068381610670565b82525050565b600073ffffffffffffffffffffffffffffffffffffffff82169050919050565b60006106b482610689565b9050919050565b6106c4816106a9565b82525050565b60006060820190506106df6000830186610661565b6106ec602083018561067a565b6106f960408301846106bb565b949350505050565b600060208201905061071660008301846106bb565b92915050565b610725816106a9565b811461073057600080fd5b50565b6000813590506107428161071c565b92915050565b60006020828403121561075e5761075d610574565b5b600061076c84828501610733565b91505092915050565b600060208201905061078a6000830184610661565b92915050565b60006020820190506107a5600083018461067a565b92915050565b600082825260208201905092915050565b7f4e6f7420616e20617574686f72697a65642062616e6b00000000000000000000600082015250565b60006107f26016836107ab565b91506107fd826107bc565b602082019050919050565b60006020820190508181036000830152610821816107e5565b9050919050565b7f496e76616c696420656e74697479207479706500000000000000000000000000600082015250565b600061085e6013836107ab565b915061086982610828565b602082019050919050565b6000602082019050818103600083015261088d81610851565b9050919050565b7f4e487b7100000000000000000000000000000000000000000000000000000000600052601160045260246000fd5b60006108ce82610670565b91507fffffffffffffffffffffffffffffffffffffffffffffffffffffffffffffffff8203610900576108ff610894565b5b600182019050919050565b610914816105af565b82525050565b600060408201905061092f600083018561090b565b61093c602083018461067a565b9392505050565b7f4e6f74206f776e65720000000000000000000000000000000000000000000000600082015250565b60006109796009836107ab565b915061098482610943565b602082019050919050565b600060208201905081810360008301526109a88161096c565b905091905056fea26469706673582212203be991c99de246b9b8b9b4ffeb6474de7f08dafff30b09e4087af2db82fafc3364736f6c63430008180033",
  "linkReferences": {},
  "deployedLinkReferences": {}
}