{
  "_format": "hh-sol-artifact-1",
  "contractName": "Reputation",
  "sourceName": "contracts/Reputation.sol",
  "abi": [
    {
      "inputs": [],
      "stateMutability": "nonpayable",
      "type": "constructor"
    },
    {
      "anonymous": false,
      "inputs": [
        {
          "indexed": true,
          "internalType": "bytes32",
          "name": "entityHash",
          "type": "bytes32"
        },
        {
          "indexed": false,
          "internalType": "uint8",
          "name": "oldScore",
          "type": "uint8"
        },
        {
          "indexed": false,
          "internalType": "uint8",
          "name": "newScore",
          "type": "uint8"
        },
        {
          "indexed": false,
          "internalType": "uint256",
          "name": "timestamp",
          "type": "uint256"
        }
      ],
      "name": "ReputationUpdated",
      "type": "event"
    },
    {
      "inputs": [
        {
          "internalType": "address",
          "name": "bank",
          "type": "address"
        }
      ],
      "name": "addBank",
      "outputs": [],
      "stateMutability": "nonpayable",
      "type": "function"
    },
    {
      "inputs": [
        {
          "internalType": "address",
          "name": "",
          "type": "address"
        }
      ],
      "name": "authorizedBanks",
      "outputs": [
        {
          "internalType": "bool",
          "name": "",
          "type": "bool"
        }
      ],
      "stateMutability": "view",
      "type": "function"
    },
    {
      "inputs": [
        {
          "internalType": "bytes32",
          "name": "entityHash",
          "type": "bytes32"
        }
      ],
      "name": "getReputation",
      "outputs": [
        {
          "internalType": "uint8",
          "name": "score",
          "type": "uint8"
        },
        {
          "internalType": "uint256",
          "name": "lastUpdated",
          "type": "uint256"
        }
      ],
      "stateMutability": "view",
      "type": "function"
    },
    {
      "inputs": [],
      "name": "owner",
      "outputs": [
        {
          "internalType": "address",
          "name": "",
          "type": "address"
        }
      ],
      "stateMutability": "view",
      "type": "function"
    },
    {
      "inputs": [
        {
          "internalType": "bytes32",
          "name": "entityHash",
          "type": "bytes32"
        },
        {
          "internalType": "uint8",
          "name": "newScore",
          "type": "uint8"
        }
      ],
      "name": "updateReputation",
      "outputs": [],
      "stateMutability": "nonpayable",
      "type": "function"
    }
  ],
  "bytecode": "0x608060405234801561001057600080fd5b5033600260006101000a81548173ffffffffffffffffffffffffffffffffffffffff021916908373ffffffffffffffffffffffffffffffffffffffff160217905550610814806100616000396000f3fe608060405234801561001057600080fd5b50600436106100575760003560e01c80636ccfb2561461005c5780638da5cb5b146100785780639472239714610096578063a2969820146100b2578063d14519d2146100e2575b600080fd5b610076600480360381019061007191906104a9565b610113565b005b6100806102a6565b60405161008d919061052a565b60405180910390f35b6100b060048036038101906100ab9190610571565b6102cc565b005b6100cc60048036038101906100c79190610571565b6103b6565b6040516100d991906105b9565b60405180910390f35b6100fc60048036038101906100f791906105d4565b6103d6565b60405161010a929190610629565b60405180910390f35b600160003373ffffffffffffffffffffffffffffffffffffffff1673ffffffffffffffffffffffffffffffffffffffff16815260200190815260200160002060009054906101000a900460ff1661019f576040517f08c379a0000000000000000000000000000000000000000000000000000000008152600401610196906106af565b60405180910390fd5b60648160ff1611156101e6576040517f08c379a00000000000000000000000000000000000000000000000000000000081526004016101dd9061071b565b60405180910390fd5b600080600084815260200190815260200160002060000160009054906101000a900460ff16905060405180604001604052808360ff1681526020014281525060008085815260200190815260200160002060008201518160000160006101000a81548160ff021916908360ff16021790555060208201518160010155905050827f3e13f60d66224b5bafda0e6c5fa2ffbcd087ea3de8173278375eb114a396668f8284426040516102999392919061073b565b60405180910390a2505050565b600260009054906101000a900473ffffffffffffffffffffffffffffffffffffffff1681565b600260009054906101000a900473ffffffffffffffffffffffffffffffffffffffff1673ffffffffffffffffffffffffffffffffffffffff163373ffffffffffffffffffffffffffffffffffffffff161461035c576040517f08c379a0000000000000000000000000000000000000000000000000000000008152600401610353906107be565b60405180910390fd5b60018060008373ffffffffffffffffffffffffffffffffffffffff1673ffffffffffffffffffffffffffffffffffffffff16815260200190815260200160002060006101000a81548160ff02191690831515021790555050565b60016020528060005260406000206000915054906101000a900460ff1681565b60008060008060008581526020019081526020016000206040518060400160405290816000820160009054906101000a900460ff1660ff1660ff1681526020016001820154815250509050806000015181602001519250925050915091565b600080fd5b6000819050919050565b61044d8161043a565b811461045857600080fd5b50565b60008135905061046a81610444565b92915050565b600060ff82169050919050565b61048681610470565b811461049157600080fd5b50565b6000813590506104a38161047d565b92915050565b600080604083850312156104c0576104bf610435565b5b60006104ce8582860161045b565b92505060206104df85828601610494565b9150509250929050565b600073ffffffffffffffffffffffffffffffffffffffff82169050919050565b6000610514826104e9565b9050919050565b61052481610509565b82525050565b600060208201905061053f600083018461051b565b92915050565b61054e81610509565b811461055957600080fd5b50565b60008135905061056b81610545565b92915050565b60006020828403121561058757610586610435565b5b60006105958482850161055c565b91505092915050565b60008115159050919050565b6105b38161059e565b82525050565b60006020820190506105ce60008301846105aa565b92915050565b6000602082840312156105ea576105e9610435565b5b60006105f88482850161045b565b91505092915050565b61060a81610470565b82525050565b6000819050919050565b61062381610610565b82525050565b600060408201905061063e6000830185610601565b61064b602083018461061a565b9392505050565b600082825260208201905092915050565b7f4e6f7420616e20617574686f72697a65642062616e6b00000000000000000000600082015250565b6000610699601683610652565b91506106a482610663565b602082019050919050565b600060208201905081810360008301526106c88161068c565b9050919050565b7f53636f7265206d75737420626520302d31303000000000000000000000000000600082015250565b6000610705601383610652565b9150610710826106cf565b602082019050919050565b60006020820190508181036000830152610734816106f8565b9050919050565b60006060820190506107506000830186610601565b61075d6020830185610601565b61076a604083018461061a565b949350505050565b7f4e6f74206f776e65720000000000000000000000000000000000000000000000600082015250565b60006107a8600983610652565b91506107b382610772565b602082019050919050565b600060208201905081810360008301526107d78161079b565b905091905056fea26469706673582212203eb94f6459b9de9e89f7498ce9fcade0c79c4f5469e854b2154efa82d78d7aa664736f6c63430008180033",
  "linkReferences": {},
  "deployedLinkReferences": {}
}